:1000000066C080C07FC07EC07DC07CC07BC07AC01F
:1000100079C078C077C0AFC364C374C073C072C006
:1000200071C070C06FC0A0C116C215C214C213C285
:1000300012C211C210C20FC20EC20DC20CC20BC23C
:100040000AC209C208C207C206C205C204C203C26C
:1000500002C201C200C2FFC1FEC1FDC1FCC1FBC1A1
:10006000FAC1F9C1F8C1F7C1F6C1F5C1F4C1F3C1D4
:10007000F2C1F1C1F0C1EFC1EEC1EDC1ECC1EBC104
:10008000EAC1E9C1E8C1E7C1E6C1E5C18FC1E3C189
:10009000E2C1E1C1E0C1DFC1DEC1DDC1DCC1DBC164
:1000A000DAC1C1C0DDC0D7C1F6C0D5C1D4C1D3C18A
:1000B000D2C1D1C1D0C1CFC1CEC195C138C1CBC190
:1000C000CAC10DC1C8C118C1C6C1C5C154C111241E
:1000D0001FBECFE5D4E0DEBFCDBF10E0A0E6B0E0AC
:1000E000EAE1FEE002C005900D92A837B107D9F70A
:1000F00020E0A8E7B0E001C01D92A239B207E1F705
:1001000002D089C67DCF80E016D01F9281E38F9305
:1001100080E690E09F938F9322D02FE986E891E0CC
:10012000215080409040E1F700C000000F900F90F8
:100130000F900F90EACFE8E7F0E08EE0DF011D922C
:100140008A95E9F780EC92E1A0E0B0E081879287A0
:10015000A387B48784E08683CF017CD208954F9231
:100160005F926F927F92AF92BF92CF92DF92EF92A7
:10017000FF920F931F93CF93DF93CDB7DEB7C85C89
:10018000D1090FB6F894DEBF0FBECDBFC752DF4F07
:10019000E880F980C95DD04084E6FE013196DF0138
:1001A000982F1D929A95E9F7EC59FF4FDF011D92A8
:1001B0008A95E9F7E114F10409F466C1E456F109FE
:1001C00084E6DF011D928A95E9F76E01BBEDCB0E47
:1001D000D11C00E010E0412C512C32013CC1853291
:1001E00009F02BC1FE01EB59FF4F84E6DF011D92A0
:1001F0008A95E9F7D301C2010196A11DB11DF7014E
:10020000E80FF91FB2E04B0E511C611C711CE0811C
:100210008E2F90E0FC01B597E435F10508F01BC185
:10022000ED5EFF4F09945601E2E0AE0EB11CD6011F
:1002300011968C9111978F938C918F9380E690E01B
:100240009F938F93CE018B599F4F9F938F930BD387
:100250000F900F900F900F900F900F906501DDC0E1
:100260005601B2E0AB0EB11CF60181818F93808103
:100270008F9383E690E09F938F93CE018B599F4F8E
:100280009F938F93F0D20F900F900F900F900F903D
:100290000F906501C2C05601F4E0AF0EB11CD6014B
:1002A00013968C9113978F9312968C9112978F932C
:1002B00011968C9111978F938C918F9386E690E095
:1002C0009F938F93CE018B599F4F9F938F93CBD248
:1002D0000FB6F894DEBF0FBECDBF65019EC05601BC
:1002E000F2E0AF0EB11CD6016D917C91CE018B591D
:1002F0009F4FB2D2650191C05601B2E0AB0EB11C66
:10030000F60181818F9380818F9389E690E09F939E
:100310008F93CE018B599F4F9F938F93A4D20F90B1
:100320000F900F900F900F900F90650176C05601BF
:10033000F2E0AF0EB11CD60111968C9111978F93FC
:100340008C918F938CE690E09F938F93CE018B5985
:100350009F4F9F938F9387D20F900F900F900F9086
:100360000F900F90650159C085E290E0A7969FAF6E
:100370008EAFA79752C05601B2E0AB0EB11CF6018A
:1003800081818F9380818F938FE690E09F938F93ED
:10039000CE018B599F4F9F938F9365D20F900F90F3
:1003A0000F900F900F900F90650137C05601F2E04B
:1003B000AF0EB11CD60111968C9111978F938C9131
:1003C0008F9382E790E09F938F93CE018B599F4F3D
:1003D0009F938F9348D20F900F900F900F900F9094
:1003E0000F9065011AC05601B2E0AB0EB11CF601C8
:1003F00081818F9380818F9385E790E09F938F9386
:10040000CE018B599F4F9F938F932DD20F900F90BA
:100410000F900F900F900F906501BE016B597F4FA9
:10042000FB0101900020E9F73197E61BF70B0E0F57
:100430001F1FCE01019605D20EC0FFEF4F1A5F0AB3
:100440006F0A7F0AE1E0F0E0EC0FFD1FE00FF11F03
:1004500080830F5F1F4FF701E40DF51D808181112F
:10046000BECE78018FEFE81AF80AE1E0F0E0EC0F79
:10047000FD1FE00FF11F1082B701CE010196EDD0F4
:10048000B70180E090E003C06FEF7FEFCB01C8536E
:10049000DF4F0FB6F894DEBF0FBECDBFDF91CF9117
:1004A0001F910F91FF90EF90DF90CF90BF90AF9092
:1004B0007F906F905F904F9008959C0190B59068E9
:1004C00090BD8AB18AB96623D1F02230310551F04E
:1004D0002330310519F0232B69F408C080B58268F8
:1004E00080BD089580B5846880BD089580B5866814
:1004F00080BD089580B5806880BD8AB18AB90895AD
:10050000A0E0B0E0880F991FAA1FBB1F880F991F9A
:10051000AA1FBB1F9C01AD01220F331F441F551F93
:10052000220F331F441F551F60E472E48FE090E0F8
:1005300066D12150310930BD29B908951F93CF9359
:10054000DF931092900010928A0010928B0010920C
:100550008C0010928D00FC012585262320939100AC
:10056000009779F48FEF9FEFDC0180938A009093DE
:100570008B00A0938C00B0938D006FEF7FEFCB01C9
:100580001EC0162FEC01878190E097DF612F8985CF
:100590009A85B6DF112381F081E090E0A0E0B0E021
:1005A00080938A0090938B00A0938C00B0938D0071
:1005B00060E070E0CB0103C060E070E0CB01DF9150
:1005C000CF911F9108959AB1977E9AB9882319F017
:1005D0008AB180618AB908959AB1977E9AB98823C1
:1005E00019F08AB188608AB908958AB18AB98AB146
:1005F00080628AB981E0F0DF08955D9BFECF8CB9FF
:100600000895CF92DF92EF92FF9281E0E5DFC12C57
:10061000D12C76010DC0E0918E00F0918F00EC0D91
:10062000FD1D8081EADF8FEFC81AD80AE80AF80AB0
:100630008091880090918900A0E0B0E0C816D906AA
:10064000EA06FB0640F380E0C7DFFF90EF90DF9003
:10065000CF90089561E072DF08959C01AB01109284
:10066000900010928F0010928E00109289001092CC
:100670008800109287001092860060918A00709125
:100680008B0080918C0090918D0061307105810507
:10069000910531F521153105E1F041155105E9F0DC
:1006A00030938F0020938E005093890040938800F0
:1006B00080919100882329F098DF60E070E0CB0101
:1006C00008959FDF81E08093900060E070E0CB01AF
:1006D00008956FEF7FEFCB0108956FEF7FEFCB01B0
:1006E00008951F920F920FB60F9211242F933F93EC
:1006F0004F935F936F937F938F939F93AF93BF932A
:10070000EF93FF93539B26C020918E0030918F0072
:100710008091860090918700AC014F5F5F4F5093AE
:10072000870040938600F901E80FF91F80818CB99A
:1007300020918600309187008091880090918900F7
:100740002817390739F48AB18AB980E045DF81E09A
:1007500080939000FF91EF91BF91AF919F918F9106
:100760007F916F915F914F913F912F910F900FBEAD
:100770000F901F9018951F920F920FB60F92112491
:100780002F933F934F935F936F937F938F939F9399
:10079000AF93BF93EF93FF9340918E0050918F00E2
:1007A00080918600909187009C012F5F3F4F30938E
:1007B000870020938600FA01E80FF91F4CB14083AF
:1007C00080918800909189002817390739F48AB1FF
:1007D0008AB980E0F8DE81E080939000FF91EF918C
:1007E000BF91AF919F918F917F916F915F914F9149
:1007F0003F912F910F900FBE0F901F901895A1E27F
:100800001A2EAA1BBB1BFD010DC0AA1FBB1FEE1F8A
:10081000FF1FA217B307E407F50720F0A21BB30BD5
:10082000E40BF50B661F771F881F991F1A9469F751
:1008300060957095809590959B01AC01BD01CF01AD
:100840000895FB01DC010D900020E9F7119701905C
:100850000D920020E1F70895FB01DC0101900D925B
:100860000020E1F70895AEE0B0E0E8E3F4E0AAC2CA
:100870000D891E8986E08C831A8309838FEF9FE799
:100880009E838D83AE01475E5F4F6F89788DCE0169
:10089000019608D0EF81F885E00FF11F10822E96A7
:1008A000E4E0ACC2ABE0B0E0E7E5F4E07DC26C01AF
:1008B0007B018A01FC0117821682838181FFBFC1FF
:1008C000CE0101963C01F6019381F70193FD8591DC
:1008D00093FF81917F01882309F4ADC1853239F4FA
:1008E00093FD859193FF81917F01853221F4B601BB
:1008F00090E0C0D1E8CF912C212C312CFFE1F315F1
:10090000D8F08B3279F038F4803279F08332A1F468
:10091000232D20611DC08D3261F0803369F4232DB9
:10092000216016C0832D8260382EE32DE4603E2EB8
:100930002AC0F32DF8601DC037FC2DC020ED280F14
:100940002A3040F08E32B9F436FC75C1232D206474
:10095000322E19C036FE06C08AE0989E200D112462
:10096000922E11C0EAE02E9E200D1124222EF32D8E
:10097000F0623F2E08C08C3621F4832D8068382E1B
:1009800002C0883641F4F70193FD859193FF819170
:100990007F018111B3CF982F9F7D9554933028F418
:1009A0000C5F1F4F9FE399830DC0833631F083376F
:1009B00071F0833509F055C020C0F801808189832A
:1009C0000E5F1F4F88248394912C530112C028017D
:1009D000F2E04F0E511CF801A080B18036FE03C03A
:1009E000692D70E002C06FEF7FEFC50138D14C0177
:1009F0008201F32DFF773F2E15C0280122E0420E21
:100A0000511CF801A080B18036FE03C0692D70E052
:100A100002C06FEF7FEFC50117D14C01F32DF068D5
:100A20003F2E820133FC19C0822D90E08816990672
:100A3000A0F4B60180E290E01DD12A94F5CFF50133
:100A400037FC859137FE81915F01B60190E012D1AC
:100A500021102A9421E0821A91088114910479F7D7
:100A6000E1C0843611F0893639F5F80137FE07C048
:100A700060817181828193810C5F1F4F08C060810A
:100A80007181072E000C880B990B0E5F1F4FF32D01
:100A9000FF763F2E97FF09C09095809570956195E0
:100AA0007F4F8F4F9F4FF0683F2E2AE030E0A30129
:100AB0001DD1882E861844C0853731F4232D2F7E12
:100AC000B22E2AE030E025C0932D997FB92E8F36C3
:100AD000C1F018F4883579F0AEC0803719F0883746
:100AE00021F0A9C0E92FE061BE2EB4FE0DC0FB2DA0
:100AF000F460BF2E09C034FE0AC0292F2660B22E32
:100B000006C028E030E005C020E130E002C020E16E
:100B100032E0F801B7FE07C0608171818281938164
:100B20000C5F1F4F06C06081718180E090E00E5F16
:100B30001F4FA301DBD0882E8618FB2DFF773F2E99
:100B400036FE0DC0232D2E7FA22E891458F434FEBC
:100B50000BC032FC09C0832D8E7EA82E05C0B82C98
:100B6000A32C03C0B82C01C0B92CA4FE0FC0FE01F9
:100B7000E80DF11D8081803321F49A2D997EA92EF4
:100B800009C0A2FE06C0B394B39404C08A2D86782F
:100B900009F0B394A3FC10C0A0FE06C0B21480F408
:100BA000280C922C9B180DC0B21458F4B60180E2A8
:100BB00090E060D0B394F8CFB21418F42B1802C0B0
:100BC000982C212CA4FE0FC0B60180E390E052D0F7
:100BD000A2FE16C0A1FC03C088E790E002C088E531
:100BE00090E0B6010CC08A2D867851F0A1FE02C0BB
:100BF0008BE201C080E2A7FC8DE2B60190E03AD022
:100C0000891430F4B60180E390E034D09A94F8CFA0
:100C10008A94F301E80DF11D8081B60190E02AD09D
:100C20008110F6CF222009F44ECEB60180E290E08A
:100C300021D02A94F7CFF6018681978102C08FEFE9
:100C40009FEF2B96E2E1CCC0FC0105906150704013
:100C50000110D8F7809590958E0F9F1F0895FC0185
:100C60006150704001900110D8F7809590958E0FDB
:100C70009F1F08950F931F93CF93DF93FB01238151
:100C800021FD03C08FEF9FEF2CC022FF16C04681CD
:100C90005781248135814217530744F4A081B181E3
:100CA0009D012F5F3F4F318320838C9326813781B5
:100CB0002F5F3F4F3783268314C08B01EC01FB016C
:100CC0000084F185E02D0995892BE1F6D80116966F
:100CD0008D919C911797019617969C938E931697DA
:100CE000CE01DF91CF911F910F910895FA01AA27AC
:100CF000283051F1203181F1E8946F936E7F6E5F5F
:100D00007F4F8F4F9F4FAF4FB1E03ED0B4E03CD00C
:100D1000670F781F891F9A1FA11D680F791F8A1FEF
:100D2000911DA11D6A0F711D811D911DA11D20D056
:100D300009F468943F912AE0269F11243019305D10
:100D40003193DEF6CF010895462F4770405D419301
:100D5000B3E00FD0C9F7F6CF462F4F70405D4A334E
:100D600018F0495D31FD4052419302D0A9F7EACF16
:100D7000B4E0A6959795879577956795BA95C9F745
:100D800000976105710508959B01AC010A2E069438
:100D90005795479537952795BA95C9F7620F731FF1
:100DA000841F951FA01D08952F923F924F925F922E
:100DB0006F927F928F929F92AF92BF92CF92DF926B
:100DC000EF92FF920F931F93CF93DF93CDB7DEB7D0
:100DD000CA1BDB0B0FB6F894DEBF0FBECDBF099464
:100DE0002A88398848885F846E847D848C849B84BB
:100DF000AA84B984C884DF80EE80FD800C811B81C9
:100E0000AA81B981CE0FD11D0FB6F894DEBF0FBEF7
:0A0E1000CDBFED010895F894FFCF67
:100E1A0025630025640025660025750025700025D8
:080E2A007800255800256F0037
:00000001FF
